:020000040000FA
:020000000B28CB
:10000800CE00030E83128F000A0890000E280C28D9
:10001800830143280B1811281328013014280030B5
:100028008C000030061A0138861A0138061B013880
:10003800861B01380038031D222824280130252872
:1000480000300C05003803192A282B283B280514F2
:100058000B308E0026308D005D308C008C0B3228E2
:100068008D0B32288E0B32283928831205100B107D
:1000780010088A000F0E8300CE0E4E0E09008B1753
:100088008B1583168501F030860083128501831253
:10009800861082309200DD309100910B5128920B2E
:1000A800512856288312861482309200DD30910040
:0E00B800910B5C28920B5C2861284B280B28CA
:02400E00F93F78
:00000001FF
