:020000040000FA
:060000000A128A110C280F
:10000800FE00030EF0000A08F1000A128A113A28CD
:100018000A128A110F2883010A128A1113288B17D2
:100028000B17831603130C148312031390149015E3
:10003800101400308F0001308E00831603138601E0
:10004800013087008312031397151711971417149B
:10005800831603130C150030831203139600053022
:100068009500071136280A128A110C2883120313E7
:100078000C1D3F2840284228043087060C117108BF
:0C0088008A00700E8300FE0E7E0E090040
:02400E00F93F78
:00000001FF
