:020000040000FA
:060000000A128A110C280F
:10000800FE00030EF1000A08F2000A128A111328F2
:100018000A128A110F2883010A128A1148280B1C18
:1000280016281728402883120313061E1C281D288B
:10003800202808080A3A8800861E23282428312800
:10004800F5301502031829282A282F281430F00023
:10005800700895073128F5309500061F3428352893
:10006800402806301502031C3A283B283E28143045
:1000780095024028053095000B1072088A00710E11
:100088008300FE0E7E0E09008B170B178B1583124B
:10009800031397151715F9308316031392007D3053
:1000A800831203139500921012141215FF30831651
:1000B8000313860087018801053083120313880023
:0800C80064280A128A110C28B9
:02400E00F93F78
:00000001FF
