:020000040000FA
:060000000A128A11EA2F2A
:100E68007E088A007F0882000A128A1134270A1233
:100E78008A118000840A04087D0603190034FF0AD9
:100E88000319FE0A382F033400343A3400343B3453
:100E980000343A34003403340034403400345E34CF
:100EA80000341E3400345E3400345E340034F30001
:100EB800F201731C602F612F652F7008F100710813
:100EC800F2070310F00D0310F30C7308031D6D2FC8
:100ED8006E2F5D2F720808008316031386018701A1
:100EE8008312031386018701FC01FD01F801F90152
:100EF8000130831203138700FA01FB017A08F4001A
:100F080001300310F40DFF3E031D852F20307407B8
:100F1800F5000A30F6007608F0007C080A128A11FB
:100F28005B270A128A117507F70077088400831374
:100F38000008831203138600C730F400A32FF40BB4
:100F4800A22FA62FA72F831203130708F4007407F4
:100F580087000130FA070318FB0A0030FB077B08FB
:100F6800803AFF0080307F02031DBC2F05307A02D3
:100F7800031CBF2FC02F822F0130F8070318F90A6E
:100F88000030F9077908803AFF0080307F02031D9E
:100F9800CF2F64307802031CD22FD32F7C2F01303F
:100FA800FC070318FD0A0030FD077D08803AFF00A2
:100FB80080307F02031DE22F02307C02031CE52FE4
:100FC800E62F7A2F782F0A128A11002883133430DB
:100FD800FD000730FE004730FF00203084000A1271
:100FE8008A1138270A128A11F801F901FA01FB015E
:080FF80083010A128A11702F17
:02400E00F93F78
:00000001FF
