:020000040000FA
:020000000B28CB
:10000800CE00030E83128F000A08900055280C2892
:1000180083010E288B170B16831685010130860085
:10002800831285018601831206130630930013306C
:100038009200AD309100910B1F28920B1F28930B53
:100048001F282628831206170630930013309200C3
:10005800AD309100910B2E28920B2E28930B2E2851
:100068003528831286130630930013309200AD3082
:100078009100910B3D28920B3D28930B3D28442875
:10008800831286170630930013309200AD3091002A
:10009800910B4C28920B4C28930B4C28532817286B
:1000A8000B288B1C582859286A28013085000B30EA
:1000B8008E0026308D005D308C008C0B61288D0BF6
:1000C80061288E0B61286828831285018B1010081F
:0C00D8008A000F0E8300CE0E4E0E0900B1
:02400E00FB3F76
:00000001FF
