:020000040000FA
:060000000A128A1110280B
:10000800FE00030E83120313AE000A08AF007F0838
:10001800B0000A128A11B8280A128A111328F901A5
:10002800FA01FB01FC0183010A128A1128298312B3
:100038000313A101F31F212822282F28F009F10911
:10004800F209F309F00A0319F10A0319F20A03196C
:10005800F30AA101A10AF71F322833284228F4091C
:10006800F509F609F709F40A0319F50A0319F60A56
:100078000319F70A0130F8007808A1060030A50036
:100088000030A4000030A3000030A20073087204FE
:10009800710470040319512852289F28A001A00A4E
:1000A80062280130F8000310F00DF10DF20DF30D88
:1000B800F80B57280130F8007808A007F31F6528C7
:1000C800662855280130F8000310A20DA30DA40DD1
:1000D800A50DF80B682873087702031D7D287208A0
:1000E8007602031D7D2871087502031D7D2870089E
:1000F8007402031C8028812890287008F402710873
:10010800031C710FF5027208031C720FF6027308C4
:10011800031C730FF702221401300310F30CF20CC6
:10012800F10CF00CFF3E031D91280130A002031DC5
:100138009E289F28662821080319A328A428AF28E9
:10014800A209A309A409A509A20A0319A30A031964
:10015800A40A0319A50A2508F3002408F2002308B5
:10016800F1002208F00008000C1CBB28BC28C2289B
:100178000130FB070318FC0A0030FC070C1DC528DA
:10018800C6281D290030F3000F30F2004230F1007C
:100198004030F0001508A6001608A700A801A9011C
:1001A8007B08AA007C08AB00AC01AD01103003103D
:1001B800AA0DAB0DAC0DAD0DFF3E031DDB282A08C3
:1001C800A6072B0803182B0FEA28EB28A7072C08EB
:1001D80003182C0FF028F128A8072D0803182D0A5A
:1001E800A9072908F7002808F6002708F5002608B7
:1001F800F4000A128A111B200A128A117108FA00E7
:100208007008F9007A08803AFF0080307F02031DE9
:100218000F29FF307902031C122913291729F90124
:10022800FA01FB01FC017908831203138600FB0124
:10023800FC010C100C113008FF002F088A002E0E4C
:100248008300FE0E7E0E09008B170B17831603130F
:100258000C148312031390109012101210148E01B4
:100268008F0183160313860104308700831203135A
:1002780086011714971017159711831603130C1579
:0802880044290A128A11102812
:02400E00F93F78
:00000001FF
