:020000040000FA
:020000000B28CB
:10000800CE00030E83128E000A088F0035280C28B4
:1000180083128C018D01830111280B17013083167F
:1000280085008601831286018312051C1C281D2861
:1000380018280518202821281D2801308C070318A6
:100048008D0A00308D071F3089000C088800831640
:10005800081555308900AA30890088148B1718288C
:100068000B288316081E39283A2842281F30831285
:10007800890083160814831208088600831608125C
:1000880083120F088A000E0E8300CE0E4E0E090052
:02400E00F93F78
:00000001FF
