:020000040000FA
:060000000A128A11FC2F18
:100010005330F000F00B0A28080083120313A101EB
:10002000F81F132814281B28F709F809F70A0319E1
:10003000F80AA101A10AFA1F1E281F282828F90979
:10004000FA09F90A0319FA0A0130FB007B08A10634
:10005000A201A3017708780403192F283028672804
:10006000A001A00A3E2801300310F70DF80DFF3E55
:10007000031D34280130FB007B08A007F81F41282E
:100080004228332801300310A20DA30DFF3E031DAB
:10009000432878087A02031D4F2877087902031C49
:1000A000522853285A287708F9027808031CFA03C3
:1000B000FA02221401300310F80CF70CFF3E031D66
:1000C0005B280130A002031D66286728422821080A
:1000D00003196B286C287128A209A309A20A031925
:1000E000A30A2308F8002208F70008000310720D85
:1000F000730DF4007408FA007A08031D8028812823
:100100008A280030F3000030F2000030F1000030A7
:10011000F000EF287008F4007108F5007208F6008E
:100120007308F7001F300310F70CF60CF50CF40CF5
:10013000FF3E031D93287408F8007808F900F217B1
:10014000FF30F005FF30F105FF30F2050030F30518
:100150009630FA02FA1FAD28AE28C8287A08803AED
:10016000973E0318B428B528B6288128013003101B
:10017000F30CF20CF10CF00CFF3E031DB72801301C
:10018000F4007408FA07031DC628C728B628DF281C
:1001900020307A02031CCD28CE28DA2881280130AD
:1001A000F4000310F00DF10DF20DF30DF40BD12856
:1001B0000130FA027A08031DDE28DF28CF287908EB
:1001C0000319E328E428EF28F009F109F209F309FB
:1001D000F00A0319F10A0319F20A0319F30A0800D5
:1001E000F80078080319F528F6280A29F31FF928DA
:1001F000FA280A297009FA007109FB007209FC004B
:100200007309FD00FA0A0319FB0A0319FC0A031912
:10021000FD0A12297308FD007208FC007108FB003A
:100220007008FA007308720471047004031D192920
:100230001A2923290030F3000030F2000030F100C9
:100240000030F000A9299630F4007408F90035292F
:100250000130F4007408F90701300310FD0CFC0CA8
:10026000FB0CFA0CFF3E031D2D29FE307D05031DFE
:100270003A293B29282957290130F4007408F90745
:100280000130FA07003003180130FB070030031873
:100290000130FC07003003180130FD070130031066
:1002A000FD0CFC0CFB0CFA0CFF3E031D4F29FF302C
:1002B0007D05031D5C295D293C2969290130F9026E
:1002C0000130F4000310FA0DFB0DFC0DFD0DF40BD5
:1002D0006229FC1B6C296D297329023079020318ED
:1002E000722973295E297918762977297F29FF30A9
:1002F000FA05FF30FB057F30FC05FF30FD050310DC
:10030000F90C7908F400F501F601F7011830031033
:10031000F40DF50DF60DF70DFF3E031D872974084A
:10032000FA047508FB047608FC047708FD047808D5
:1003300003199B299C29A129F31F9F29A029A129E1
:10034000FD177D08F3007C08F2007B08F1007A08B5
:10035000F00008000130831603138500013083127A
:1003600003139F008030831603139F0088010A1235
:100370008A1569270A128A11831203131F151F1980
:10038000C229C329BF294430BD008030BC000030E1
:10039000BB000030BA004030A300A030A200003003
:1003A000A1000030A0001E08D400D5015408D500DB
:1003B000D401831603131E08831203135407F0009D
:1003C0000030031801305507F100F201F11BF20370
:1003D0007208F30001300A128A11F0200A128A1101
:1003E000730883120313A7007208A6007108A50002
:1003F0007008A4000A128A119B240A128A1183121F
:1004000003132308C1002208C0002108BF002008F0
:10041000BE000A128A11BE220A128A118312031325
:100420003D08DD003C08DC003B08DB003A08DA0050
:100430004230A300C830A2000030A1000030A0006C
:100440005D08A7005C08A6005B08A5005A08A40088
:100450000A128A119B240A128A1183120313230899
:10046000D9002208D8002108D7002008D600590852
:10047000F3005808F2005708F1005608F0000A127D
:100480008A1176200A128A11710883120313DF0081
:100490007008DE00F401F40A01300A128A15CE2633
:1004A0000A128A116430F7000030F8008312031337
:1004B0005F08F3005E08F200E830F0000330F1005E
:1004C0000A128A15A7270A128A117108FA00700801
:1004D000F9000A128A110D200A128A117708303E9B
:1004E0000A128A153C270A128A112E300A128A151E
:1004F0003C270A128A110A30F7000030F8008312F4
:1005000003135F08F3005E08F2006430F00000306F
:10051000F1000A128A15A7270A128A117108FA0037
:100520007008F9000A128A110D200A128A11770840
:10053000303E0A128A153C270A128A110A30F0004E
:100540000030F100831203135F08F3005E08F2002D
:100550000A128A15A7270A128A117008303E0A1259
:100560008A153C270A128A1156300A128A153C272E
:100570000A128A11BC290A128A1100288312031355
:1005800041088039C2004208CB004108C20042073E
:10059000C3004308D200C01FCE2ACF2AD02A52144B
:1005A00052080319D42AD52AE52A520A031DD92A4A
:1005B000DA2AE22A0030C1000030C0000030BF005B
:1005C0000030BE00C017C101ED2A0030C10000306C
:1005D000C0000030BF000030BE003D088039C200BE
:1005E0004208CB063D08C2004207C3004308D300BF
:1005F000BC1FFB2AFC2AFD2A531453080319012BA4
:10060000022B122B530A031D062B072B0F2B003036
:10061000BD000030BC000030BB000030BA00BC1789
:10062000BD011A2B0030BD000030BC000030BB0003
:100630000030BA003D083C043B043A04031D212B62
:10064000222B3B2B0030C1000030C0000030BF0027
:100650000030BE008030C0047F30C1044B08C200AF
:100660004208C1044108BD004008BC003F08BB006F
:100670003E08BA009A2C5208031D3F2B402B492BF1
:100680000030BD000030BC000030BB000030BA00BC
:100690009A2C5208C200C3014308C5005308420205
:1006A000C400031CC50344087F3ECC004508031862
:1006B000013E003ECD004108CA004008C9003F0885
:1006C000C8003E08C7000030C1000030C000003044
:1006D000BF000030BE000030D1000030D00000303C
:1006E000CF000030CE00D301BF2B53080319792B64
:1006F0007A2B9A2B0130C2000310C70DC80DC90D0B
:10070000CA0DC20B7C2B0130C2000310BE0DBF0D01
:10071000C00DC10DC20B852BD11F8F2B902B912BA0
:100720003E140130C2000310CE0DCF0DD00DD10DFF
:10073000C20B932B3D084A02031DA82B3C0849021B
:10074000031DA82B3B084802031DA82B3A084702AB
:10075000031CAB2BAC2BBB2B51173A08C7023B0831
:10076000031C3B0FC8023C08031C3C0FC9023D0898
:10077000031C3D0FCA020130C2004208D3071A30E1
:100780005302031CC42BC52B752B4A08490448048B
:1007900047040319CC2BCD2BEC2B4E14EC2B013042
:1007A000C2000310BE0DBF0DC00DC10DC20BD12B79
:1007B000D11FDB2BDC2BDD2B3E140130C2000310DC
:1007C000CE0DCF0DD00DD10DC20BDF2BFF30CC07DE
:1007D0000318CD0AFF30CD07C01FEF2BF02BCF2B16
:1007E000D301D11FF42BF52B112CFF304E05C20085
:1007F000FF304F05C300FF305005C4007F30510566
:10080000C50045084404430442040319082C092C7C
:100810000C2CD301D30A112C3E1C0F2C102C112CA4
:10082000092C53080319152C162C472C0130BE0730
:10083000003003180130BF07003003180130C00733
:10084000003003180130C107411C272C282C472CED
:100850003E08C2003F08C3004008C4004108C5006C
:100860000130C600450DC50CC40CC30CC20CC60B30
:10087000322C4508C1004408C0004308BF004208AC
:10088000BE000130CC070318CD0A0030CD074D085B
:10089000803AFF0080307F02031D502CFF304C0255
:1008A000031C532C542C622CFF3083120313CC00F6
:1008B0000030CD000030C1000030C0000030BF006B
:1008C0000030BE00831203134D08803AFF008030D1
:1008D0007F02031D6D2C01304C020318702C712C0B
:1008E0007E2C83120313CC01CD010030C1000030F7
:1008F000C0000030BF000030BE00CB0183120313E4
:100900004C08C2004208D200521C872C882C8A2C2A
:10091000C0178E2C7F30C2004208C0055208C200AA
:100920000310420CC3004308C1004B08C200420838
:10093000C104322B08008312031323088039A80056
:100940002808AD002308A8002807A9002908B3003B
:10095000A21FAB2CAC2CAD2C331433080319B12CD3
:10096000B22CC12C330A031DB62CB72CBF2C00307F
:10097000A3000030A2000030A1000030A000A217A8
:10098000C92C0030A3000030A2000030A1000030CC
:10099000A00027088039A8002808AD062708A8006D
:1009A0002807A9002908B200A61FD72CD82CD92CBB
:1009B000321432080319DD2CDE2CED2C320A031D13
:1009C000E22CE32CEB2C0030A7000030A600003016
:1009D000A5000030A400A617F52C0030A7000030B9
:1009E000A6000030A5000030A40032080319F92C3D
:1009F000FA2CFF2C3308031DFE2CFF2C082D003091
:100A0000A3000030A2000030A1000030A000FB2FA6
:100A10002008A8002808F00026080A128A15E826EF
:100A20000A128A11710883120313B9007008B80002
:100A30003808A800A901AA01AB012B08B1002A08B7
:100A4000B0002908AF002808AE003908A800A901A5
:100A5000AA01AB012B08B7002A08B6002908B50087
:100A60002808B4002108A8002808F00025080A1268
:100A70008A15E8260A128A11710883120313B90035
:100A80007008B8003808A800A901AA01AB0128081D
:100A9000AE07290803110318013E0319502DAF07B3
:100AA0002A0803110318013E0319572DB0072B081C
:100AB00003110318013E03195E2DB1073908A80080
:100AC000A901AA01AB012808B407290803110318DA
:100AD000013E03196C2DB5072A0803110318013EC6
:100AE0000319732DB6072B0803110318013E0319D0
:100AF0007A2DB7072208A8002808F00024080A1257
:100B00008A15E8260A128A11710883120313B900A4
:100B10007008B8003808A800A901AA01AB0128088C
:100B2000AE07290803110318013E0319982DAF07DA
:100B30002A0803110318013E03199F2DB0072B0843
:100B400003110318013E0319A62DB1073908A800A7
:100B5000A901AA01AB012808B40729080311031849
:100B6000013E0319B42DB5072A0803110318013EED
:100B70000319BB2DB6072B0803110318013E0319F7
:100B8000C22DB7070830A8000310AE0DAF0DB00D91
:100B9000B10DA80BC42D2108A8002808F0002408D6
:100BA0000A128A15E8260A128A11710883120313A1
:100BB000B9007008B8003808A8003908A900AA01CF
:100BC000AB012808AE07290803110318013E0319D9
:100BD000EA2DAF072A0803110318013E0319F12D6E
:100BE000B0072B0803110318013E0319F82DB107B4
:100BF0002008A8002808F00025080A128A15E8260F
:100C00000A128A11710883120313B9007008B80020
:100C10003808A8003908A900AA01AB012808AE07C6
:100C2000290803110318013E0319172EAF072A08DC
:100C300003110318013E03191E2EB0072B080311E0
:100C40000318013E0319252EB1070830A800031030
:100C5000AE0DAF0DB00DB10DA80B272E2008A800CA
:100C60002808F00024080A128A15E8260A128A11B8
:100C7000710883120313B9007008B8003808A8007F
:100C80003908A900AA01AB012808AE0729080311F9
:100C90000318013E03194D2EAF072A08031103184C
:100CA000013E0319542EB0072B0803110318013E0F
:100CB00003195B2EB1072108A8002808F0002608B8
:100CC0000A128A15E8260A128A1171088312031380
:100CD000B9007008B8003808A8003908A900AA01AE
:100CE000AB012808B407290803110318013E0319B2
:100CF0007A2EB5072A0803110318013E0319812E25
:100D0000B6072B0803110318013E0319882EB707F5
:100D10002208A8002808F00025080A128A15E826EB
:100D20000A128A11710883120313B9007008B800FF
:100D30003808A8003908A900AA01AB012808B4079F
:100D4000290803110318013E0319A72EB5072A0825
:100D500003110318013E0319AE2EB6072B08031129
:100D60000318013E0319B52EB7072208A80028086A
:100D7000F00026080A128A15E8260A128A1171085C
:100D800083120313B9007008B8003808A8003908A6
:100D9000A900AA01AB0108300310A80DA90DAA0DE6
:100DA000AB0DFF3E031DCC2E2808B4072908031104
:100DB0000318013E0319DD2EB5072A080311031895
:100DC000013E0319E42EB6072B0803110318013E58
:100DD0000319EB2EB7072E08A8002F08A90030082A
:100DE000AA003108AB0018300310AB0CAA0CA90CF8
:100DF000A80CFF3E031DF42E2808B4072908031190
:100E00000318013E0319052FB5072A08031103181B
:100E1000013E03190C2FB6072B0803110318013EDE
:100E20000319132FB7070830A8000310AE0DAF0D3C
:100E3000B00DB10DA80B152F33083207A800A9017A
:100E4000A90D2808823EB80029080318013EFF3E7C
:100E5000B900472F0130A8000310B40DB50DB60D31
:100E6000B70DA80B2C2FB11F362F372F382F341466
:100E70000130A8000310AE0DAF0DB00DB10DA80BE1
:100E80003A2FFF30B8070318B90AFF30B907B61F69
:100E90004A2F4B2F2A2FB201B11F4F2F502F6C2FEB
:100EA000FF302E05A800FF302F05A900FF303005C8
:100EB000AA007F303105AB002B082A04290428043E
:100EC0000319632F642F672FB201B20A6C2F341CF1
:100ED0006A2F6B2F6C2F642F32080319702F712F1C
:100EE000A22F0130B407003003180130B5070030DD
:100EF00003180130B607003003180130B707371C5C
:100F0000822F832FA22F3408A8003508A9003608A5
:100F1000AA003708AB000130AC002B0DAB0CAA0CBB
:100F2000A90CA80CAC0B8D2F2B08B7002A08B60013
:100F30002908B5002808B4000130B8070318B90A19
:100F40000030B9073908803AFF0080307F02031D66
:100F5000AB2FFF303802031CAE2FAF2FBA2F7F30DC
:100F600083120313B7008030B6000030B5000030A4
:100F7000B400EF2F831203133908803AFF0080304A
:100F80007F02031DC52F013038020318C82FC92F57
:100F9000D52F003083120313B7000030B6000030A5
:100FA000B5000030B400AD01EF2F831203133808F1
:100FB000A8002808B300FF30B405FF30B5057F3026
:100FC000B6050030B705331CE62FE72FE82FB6171C
:100FD0003308A8000310280CA9002908B7002D0821
:100FE000A8002808B7043708A3003608A20035086F
:100FF000A1003408A000080083010A128A11AA295E
:101D7C0001300A128A150F270A128A150330F50052
:101D8C009730F400F40BC82EF50BC82ECD2E08009E
:101D9C00F5007503031DD32ED42EDE2E7408FF3EE2
:101DAC000F39803E0A128A150F270A128A15E72E60
:101DBC007408FF3E0F39C03E0A128A150F270A120B
:101DCC008A150800F800F401F5017008F200F3011F
:101DDC007208F6007308F700781CF52EF62EFC2E10
:101DEC007608F4070318F50A7708F5070130031095
:101DFC00F60DF70DFF3E031DFD2E0310F80C7808B1
:101E0C00031D092F0A2FF22E7508F1007408F0003B
:101E1C000800F300831203138810081008150F3004
:101E2C000805F1007308F0397104880008110A12D2
:101E3C008A1108200A128A158312031308150F3011
:101E4C000805F10073080F39F20003300310F20D8E
:101E5C00FF3E031D2C2F0310720D71048800081116
:101E6C000A128A1108200A128A150800F30083123C
:101E7C0003138810081408150F300805F1007308B7
:101E8C00F0397104880008110A128A1108200A120C
:101E9C008A158312031308150F300805F100730817
:101EAC000F39F20003300310F20DFF3E031D592FC2
:101EBC000310720D7104880008110A128A1108208F
:101ECC000A128A15080083120313081088100811CF
:101EDC001430F7007930F600F60B722FF70B722FD7
:101EEC00772F83120313081502300A128A150F2755
:101EFC000A128A150330F7009730F600F60B842F80
:101F0C00F70B842F892F28300A128A150F270A12F3
:101F1C008A1506300A128A150F270A128A150C30F8
:101F2C000A128A150F270A128A150A128A15BE265A
:101F3C000A128A1580300A128A150F270A128A157E
:101F4C000800F601F31FAB2FAC2FB32FF209F309E6
:101F5C00F20A0319F30AF601F60AF11FB62FB72F8E
:101F6C00BC2FF009F109F00A0319F10A7008710489
:101F7C000319C12FC22FF12FF501F50AD02F013013
:101F8C000310F00DF10DFF3E031DC62F0130F400C0
:101F9C007408F507F11FD32FD42FC52F71087302C6
:101FAC00031DDA2F70087202031CDD2FDE2FE42FC5
:101FBC007008F2027108031CF303F30201300310E2
:101FCC00F10CF00CFF3E031DE52F0130F502031D53
:101FDC00F02FF12FD42F76080319F52FF62FFB2FA6
:101FEC00F209F309F20A0319F30A7308F1007208F3
:041FFC00F0000800E9
:02400E00F93D7A
:00000001FF
