:020000040000FA
:060000000A128A11122809
:10000800FE00030EF5000408F6000A08F700831244
:1000180003137F08F8000A128A112B280A128A1182
:10002800152883135430FD000130FE007630FF00A0
:10003800203084000A128A11D0210A128A11D401B0
:10004800D501FB01FC0183010A128A11AA290B1CA4
:100058002E282F282E29F901FA017908F0007007B7
:10006800203E840083130008F100840A0008F2008F
:10007800831203130608F300F40172087406031DC3
:10008800472871087306031D4A284B284C28EC287A
:100098000130F9070318FA0A0030FA077A08803A9B
:1000A800FF0080307F02031D5B280C307902031C9F
:1000B8005E285F283128EC287B08F00070074C3E4A
:1000C8008400831203133A0883138000840A3B08D0
:1000D800800017297B08F00070074C3E84008312CB
:1000E80003133C0883138000840A3D088000172905
:1000F8007B08F00070074C3E8400831203133E080F
:1001080083138000840A3F08800017297B08F000C9
:1001180070074C3E84008312031340088313800049
:10012800840A4108800017297B08F00070074C3EBC
:10013800840083120313420883138000840A43084F
:10014800800017297B08F00070074C3E840083125A
:100158000313440883138000840A45088000172984
:100168007B08F00070074C3E840083120313460896
:1001780083138000840A4708800017297B08F00051
:1001880070074C3E840083120313480883138000D1
:10019800840A4908800017297B08F00070074C3E44
:1001A8008400831203134A0883138000840A4B08CF
:1001B800800017297B08F00070074C3E84008312EA
:1001C8000313380883138000840A3908800017292C
:1001D8007A08003A0319F12817297908003A03190F
:1001E8006028013A03196E28033A03197C28013A5A
:1001F80003198A28073A03199828013A0319A628E7
:10020800033A0319B428013A0319C2280F3A03190B
:10021800D028013A03191729033A0319DE28013AAD
:100228000319172917290130FB070318FC0A0030A6
:10023800FC0704307B067C04031D23292429262976
:10024800FB01FC01C730F0002929F00B28292C29D3
:100258002D290B10831203130C1C33293429692907
:100268000310860D861D39293A293C29013086005C
:100278005408F00070074C3E840083130008F10016
:100288007107383E8400000888000310870C01308D
:10029800D4070318D50A0030D507071E5429552955
:1002A800592980308700D401D5010C10B030810065
:1002B8000330F2008A30F1005530F000F00B62296B
:1002C800F10B6229F20B622969297808831203135A
:1002D800FF0077088A0076088400750E8300FE0EFA
:1002E8007E0E090011340034123400341434003402
:1002F80021340034223400342434003441340034AE
:1003080042340034443400348134003482340034BC
:10031800843400343F340034063400345B34003411
:100328004F340034663400346D3400347C34003487
:10033800073400347F3400346F3400343F340034E1
:100348003F3400343F3400343F3400348B170B17EC
:100358008B15831603130C148312031390121012B7
:10036800901010143C308F00B0308E00F03083169F
:1003780003138600F03087008801013083120313CD
:100388008600803087008801C8290A128A1112283D
:100398007E088A007F0882000A128A11CC210A127C
:1003A8008A118000840A04087D0603190034FF0AB4
:0603B8000319FE0AD02922
:02400E00F93F78
:00000001FF
