:020000040000FA
:02000000D42BFF
:100536003F340034063400345B3400344F34003426
:10054600663400346D3400347C34003407340034AF
:100556007F3400346F3400348312A601A31FB42AFB
:10056600B52ABC2AA209A309A20A0319A30AA6014D
:10057600A60AA11FBF2AC02AC52AA009A109A00A46
:100586000319A10A200821040319CA2ACB2AFA2A28
:10059600A501A50AD92A01300310A00DA10DFF3E21
:1005A600031DCF2A0130A4002408A507A11FDC2AB9
:1005B600DD2ACE2A21082302031DE32A200822026F
:1005C600031CE62AE72AED2A2008A2022108031CBA
:1005D600A303A30201300310A10CA00CFF3E031DD0
:1005E600EE2A0130A502031DF92AFA2ADD2A260879
:1005F6000319FE2AFF2A042BA209A309A20A03193A
:10060600A30A2308A1002208A0000800831685017A
:1006160086018312850186010A308312A00000300C
:10062600A1003008A3002F08A200AF2283122108E0
:10063600AE002008AD000A30A0000030A10030084E
:10064600A3002F08A2006C2383122108AC00200807
:10065600AB00851005142D08A90029070C3E84005F
:100666008313000886000D30AA00FB30A900A90BF1
:100676003A2BAA0B3A2B3F2B8312051085142B0815
:10068600A90029070C3E84008313000886000D305C
:10069600AA00FB30A900A90B4E2BAA0B4E2B532BFD
:1006A60001308312AF070318B00A0030B0073008D4
:1006B600803ACF0080304F02031D632B64302F0237
:1006C600031C662B672B0F2B8312AF01B0010F2B78
:1006D60000288312A601A11F712B722B792BA0096A
:1006E600A109A00A0319A10AA601A60AA31F7C2B29
:1006F6007D2B862BA209A309A20A0319A30A01309E
:10070600A4002408A606A701A801200821040319AD
:100716008D2B8E2BC52BA501A50A9C2B0130031012
:10072600A00DA10DFF3E031D922B0130A40024084D
:10073600A507A11F9F2BA02B912B01300310A70DFE
:10074600A80DFF3E031DA12B21082302031DAD2B7F
:1007560020082202031CB02BB12BB82B2008A202C2
:100766002108031CA303A302271401300310A10CC4
:10077600A00CFF3E031DB92B0130A502031DC42B9F
:10078600C52BA02B26080319C92BCA2BCF2BA709CB
:10079600A809A70A0319A80A2808A1002708A00083
:1007A60008009B228C009C228D009D228E009E229A
:1007B6008F009F229000A0229100A1229200A222E7
:1007C6009300A3229400A4229500A5229600A622B7
:1007D6009700A7229800A8229900A9229A00AA2287
:1007E6009B00AB229C00AC229D00AD229E00AE2257
:0A07F6009F00AF01B0018301092B41
:02400E00FD3F74
:00000001FF
