:020000040000FA
:060000000A128A11FC2F18
:100C04005330F000F00B042E080001300A128A1150
:100C14003D260A128A110330F5009730F400F40BD4
:100C2400112EF50B112E162E0800831603138801BE
:100C34008312031388010A128A1197260A128A1151
:100C44000A128A11D5260A128A1100300A128A1150
:100C54006A260A128A1101300A128A116A260A12B5
:100C64008A1102300A128A116A260A128A11392E4E
:100C74000A128A110028F300831203138810081043
:100C840008150F300805F1007308F0397104880065
:100C940008110A128A1102260A128A1183120313F6
:100CA40008150F300805F10073080F39F2000330FE
:100CB4000310F20DFF3E031D5A2E0310720D710432
:100CC400880008110A128A1102260A128A110800E1
:100CD400F300831203138810081408150F30080555
:100CE400F1007308F0397104880008110A128A119E
:100CF40002260A128A118312031308150F300805FD
:100D0400F10073080F39F20003300310F20DFF3EB7
:100D1400031D872E0310720D7104880008110A1236
:100D24008A1102260A128A1108008312031308107A
:100D3400881008111430F7007930F600F60BA02E55
:100D4400F70BA02EA52E83120313081502300A12E6
:100D54008A113D260A128A110330F7009730F600F3
:100D6400F60BB22EF70BB22EB72E28300A128A11C8
:100D74003D260A128A1106300A128A113D260A12E9
:100D84008A110C300A128A113D260A128A110A129B
:100D94008A1107260A128A1180300A128A113D2606
:100DA4000A128A11080040300A128A113D260A12DA
:100DB4008A110E300A128A116A260A128A114130E7
:100DC4000A128A113D260A128A1111300A128A1156
:100DD4006A260A128A1142300A128A113D260A1220
:100DE4008A1110300A128A116A260A128A114330B3
:100DF4000A128A113D260A128A1110300A128A1127
:100E04006A260A128A1144300A128A113D260A12ED
:100E14008A1110300A128A116A260A128A11453080
:100E24000A128A113D260A128A1115300A128A11F1
:100E34006A260A128A1146300A128A113D260A12BB
:100E44008A110E300A128A116A260A128A11473050
:100E54000A128A113D260A128A1100300A128A11D6
:100E64006A260A128A1148300A128A113D260A1289
:100E74008A110E300A128A116A260A128A1149301E
:100E84000A128A113D260A128A1100300A128A11A6
:100E94006A260A128A114A300A128A113D260A1257
:100EA4008A110F300A128A116A260A128A114B30EB
:100EB4000A128A113D260A128A1110300A128A1166
:100EC4006A260A128A114C300A128A113D260A1225
:100ED4008A1113300A128A116A260A128A114D30B5
:100EE4000A128A113D260A128A1111300A128A1135
:100EF4006A260A128A114E300A128A113D260A12F3
:100F04008A110F300A128A116A260A128A114F3086
:100F14000A128A113D260A128A1100300A128A1115
:100F24006A260A128A1150300A128A113D260A12C0
:100F34008A1104300A128A116A260A128A1151305F
:100F44000A128A113D260A128A1100300A128A11E5
:100F54006A260A128A1152300A128A113D260A128E
:100F64008A1104300A128A116A260A128A1153302D
:100F74000A128A113D260A128A1104300A128A11B1
:100F84006A260A128A1154300A128A113D260A125C
:100F94008A1104300A128A116A260A128A115530FB
:100FA4000A128A113D260A128A1104300A128A1181
:100FB4006A260A128A1156300A128A113D260A122A
:100FC4008A1104300A128A116A260A128A115730C9
:100FD4000A128A113D260A128A1100300A128A1155
:100FE4006A260A128A1180300A128A113D260A12D0
:0C0FF4008A11080083010A128A11172ECE
:02400E00F93D7A
:00000001FF
