:020000040000FA
:060000000A128A11EC2F28
:100EF4007E088A007F0882000A128A117A270A1261
:100F04008A118000840A04087D0603190034FF0A4C
:100F14000319FE0A7E2F01340034023400340434F1
:100F240000340834003410340034033400343A34C8
:100F340000343B3400343A34003403340034831630
:100F44000313860187018312031386018701F001CD
:100F5400F101F201F3017208F4007407203E8400E9
:100F6400831300088312031387007208F4007407C4
:100F74002A3E8400000886002130F400F40BC02FC0
:100F84000130F2070318F30A0030F3077308803ABC
:100F9400FF0080307F02031DD12F05307202031C35
:100FA400D42FD52FAD2F0130F0070318F10A0030EC
:100FB400F1077108803AFF0080307F02031DE42F9F
:100FC4000A307002031CE72FE82FAB2FA92F0A1257
:100FD4008A11002883133430FD000730FE008D3061
:100FE400FF00203084000A128A117E270A128A1117
:0C0FF400F201F30183010A128A11A12FFF
:02400E00F93F78
:00000001FF
